{
  "_format": "hh-sol-artifact-1",
  "contractName": "SlideChain",
  "sourceName": "contracts/SlideChain.sol",
  "abi": [
    {
      "anonymous": false,
      "inputs": [
        {
          "indexed": true,
          "internalType": "uint256",
          "name": "lectureId",
          "type": "uint256"
        },
        {
          "indexed": true,
          "internalType": "uint256",
          "name": "slideId",
          "type": "uint256"
        },
        {
          "indexed": false,
          "internalType": "string",
          "name": "slideHash",
          "type": "string"
        },
        {
          "indexed": false,
          "internalType": "string",
          "name": "uri",
          "type": "string"
        },
        {
          "indexed": true,
          "internalType": "address",
          "name": "registrant",
          "type": "address"
        },
        {
          "indexed": false,
          "internalType": "uint256",
          "name": "timestamp",
          "type": "uint256"
        }
      ],
      "name": "SlideRegistered",
      "type": "event"
    },
    {
      "inputs": [
        {
          "internalType": "uint256",
          "name": "lectureId",
          "type": "uint256"
        },
        {
          "internalType": "uint256",
          "name": "slideId",
          "type": "uint256"
        }
      ],
      "name": "getSlide",
      "outputs": [
        {
          "components": [
            {
              "internalType": "uint256",
              "name": "lectureId",
              "type": "uint256"
            },
            {
              "internalType": "uint256",
              "name": "slideId",
              "type": "uint256"
            },
            {
              "internalType": "string",
              "name": "slideHash",
              "type": "string"
            },
            {
              "internalType": "string",
              "name": "uri",
              "type": "string"
            },
            {
              "internalType": "uint256",
              "name": "timestamp",
              "type": "uint256"
            },
            {
              "internalType": "address",
              "name": "registrant",
              "type": "address"
            }
          ],
          "internalType": "struct SlideChain.SlideRecord",
          "name": "",
          "type": "tuple"
        }
      ],
      "stateMutability": "view",
      "type": "function"
    },
    {
      "inputs": [
        {
          "internalType": "uint256",
          "name": "lectureId",
          "type": "uint256"
        },
        {
          "internalType": "uint256",
          "name": "slideId",
          "type": "uint256"
        }
      ],
      "name": "isRegistered",
      "outputs": [
        {
          "internalType": "bool",
          "name": "",
          "type": "bool"
        }
      ],
      "stateMutability": "view",
      "type": "function"
    },
    {
      "inputs": [
        {
          "internalType": "uint256",
          "name": "lectureId",
          "type": "uint256"
        },
        {
          "internalType": "uint256",
          "name": "slideId",
          "type": "uint256"
        },
        {
          "internalType": "string",
          "name": "slideHash",
          "type": "string"
        },
        {
          "internalType": "string",
          "name": "uri",
          "type": "string"
        }
      ],
      "name": "registerSlide",
      "outputs": [],
      "stateMutability": "nonpayable",
      "type": "function"
    }
  ],
  "bytecode": "0x608060405234801561001057600080fd5b50610ed8806100206000396000f3fe608060405234801561001057600080fd5b50600436106100415760003560e01c80636166c50314610046578063a32b594b14610076578063a5ff266514610092575b600080fd5b610060600480360381019061005b919061064b565b6100c2565b60405161006d91906107fb565b60405180910390f35b610090600480360381019061008b9190610882565b610296565b005b6100ac60048036038101906100a7919061064b565b61055a565b6040516100b99190610944565b60405180910390f35b6100ca6105bf565b60006100d6848461058c565b90506000808281526020019081526020016000206040518060c001604052908160008201548152602001600182015481526020016002820180546101199061098e565b80601f01602080910402602001604051908101604052809291908181526020018280546101459061098e565b80156101925780601f1061016757610100808354040283529160200191610192565b820191906000526020600020905b81548152906001019060200180831161017557829003601f168201915b505050505081526020016003820180546101ab9061098e565b80601f01602080910402602001604051908101604052809291908181526020018280546101d79061098e565b80156102245780601f106101f957610100808354040283529160200191610224565b820191906000526020600020905b81548152906001019060200180831161020757829003601f168201915b50505050508152602001600482015481526020016005820160009054906101000a900473ffffffffffffffffffffffffffffffffffffffff1673ffffffffffffffffffffffffffffffffffffffff1673ffffffffffffffffffffffffffffffffffffffff168152505091505092915050565b600086116102d9576040517f08c379a00000000000000000000000000000000000000000000000000000000081526004016102d090610a1c565b60405180910390fd5b6000851161031c576040517f08c379a000000000000000000000000000000000000000000000000000000000815260040161031390610a88565b60405180910390fd5b6000610328878761058c565b9050600080600083815260200190815260200160002090506000816004015414610387576040517f08c379a000000000000000000000000000000000000000000000000000000000815260040161037e90610af4565b60405180910390fd5b6040518060c0016040528089815260200188815260200187878080601f016020809104026020016040519081016040528093929190818152602001838380828437600081840152601f19601f82011690508083019250505050505050815260200185858080601f016020809104026020016040519081016040528093929190818152602001838380828437600081840152601f19601f8201169050808301925050505050505081526020014281526020013373ffffffffffffffffffffffffffffffffffffffff168152506000808481526020019081526020016000206000820151816000015560208201518160010155604082015181600201908161048d9190610cef565b5060608201518160030190816104a39190610cef565b506080820151816004015560a08201518160050160006101000a81548173ffffffffffffffffffffffffffffffffffffffff021916908373ffffffffffffffffffffffffffffffffffffffff1602179055509050503373ffffffffffffffffffffffffffffffffffffffff1687897f3c56798e53d60613fa9a4ae2cc59ea38dc550f35d92e4e092b809c86d3a958d68989898942604051610548959493929190610e0c565b60405180910390a45050505050505050565b600080610567848461058c565b9050600080600083815260200190815260200160002060040154141591505092915050565b600082826040516020016105a1929190610e76565b60405160208183030381529060405280519060200120905092915050565b6040518060c001604052806000815260200160008152602001606081526020016060815260200160008152602001600073ffffffffffffffffffffffffffffffffffffffff1681525090565b600080fd5b600080fd5b6000819050919050565b61062881610615565b811461063357600080fd5b50565b6000813590506106458161061f565b92915050565b600080604083850312156106625761066161060b565b5b600061067085828601610636565b925050602061068185828601610636565b9150509250929050565b61069481610615565b82525050565b600081519050919050565b600082825260208201905092915050565b60005b838110156106d45780820151818401526020810190506106b9565b60008484015250505050565b6000601f19601f8301169050919050565b60006106fc8261069a565b61070681856106a5565b93506107168185602086016106b6565b61071f816106e0565b840191505092915050565b600073ffffffffffffffffffffffffffffffffffffffff82169050919050565b60006107558261072a565b9050919050565b6107658161074a565b82525050565b600060c083016000830151610783600086018261068b565b506020830151610796602086018261068b565b50604083015184820360408601526107ae82826106f1565b915050606083015184820360608601526107c882826106f1565b91505060808301516107dd608086018261068b565b5060a08301516107f060a086018261075c565b508091505092915050565b60006020820190508181036000830152610815818461076b565b905092915050565b600080fd5b600080fd5b600080fd5b60008083601f8401126108425761084161081d565b5b8235905067ffffffffffffffff81111561085f5761085e610822565b5b60208301915083600182028301111561087b5761087a610827565b5b9250929050565b6000806000806000806080878903121561089f5761089e61060b565b5b60006108ad89828a01610636565b96505060206108be89828a01610636565b955050604087013567ffffffffffffffff8111156108df576108de610610565b5b6108eb89828a0161082c565b9450945050606087013567ffffffffffffffff81111561090e5761090d610610565b5b61091a89828a0161082c565b92509250509295509295509295565b60008115159050919050565b61093e81610929565b82525050565b60006020820190506109596000830184610935565b92915050565b7f4e487b7100000000000000000000000000000000000000000000000000000000600052602260045260246000fd5b600060028204905060018216806109a657607f821691505b6020821081036109b9576109b861095f565b5b50919050565b600082825260208201905092915050565b7f6c6563747572654964206d757374206265203e20300000000000000000000000600082015250565b6000610a066015836109bf565b9150610a11826109d0565b602082019050919050565b60006020820190508181036000830152610a35816109f9565b9050919050565b7f736c6964654964206d757374206265203e203000000000000000000000000000600082015250565b6000610a726013836109bf565b9150610a7d82610a3c565b602082019050919050565b60006020820190508181036000830152610aa181610a65565b9050919050565b7f736c69646520616c726561647920726567697374657265640000000000000000600082015250565b6000610ade6018836109bf565b9150610ae982610aa8565b602082019050919050565b60006020820190508181036000830152610b0d81610ad1565b9050919050565b7f4e487b7100000000000000000000000000000000000000000000000000000000600052604160045260246000fd5b60008190508160005260206000209050919050565b60006020601f8301049050919050565b600082821b905092915050565b600060088302610ba57fffffffffffffffffffffffffffffffffffffffffffffffffffffffffffffffff82610b68565b610baf8683610b68565b95508019841693508086168417925050509392505050565b6000819050919050565b6000610bec610be7610be284610615565b610bc7565b610615565b9050919050565b6000819050919050565b610c0683610bd1565b610c1a610c1282610bf3565b848454610b75565b825550505050565b600090565b610c2f610c22565b610c3a818484610bfd565b505050565b5b81811015610c5e57610c53600082610c27565b600181019050610c40565b5050565b601f821115610ca357610c7481610b43565b610c7d84610b58565b81016020851015610c8c578190505b610ca0610c9885610b58565b830182610c3f565b50505b505050565b600082821c905092915050565b6000610cc660001984600802610ca8565b1980831691505092915050565b6000610cdf8383610cb5565b9150826002028217905092915050565b610cf88261069a565b67ffffffffffffffff811115610d1157610d10610b14565b5b610d1b825461098e565b610d26828285610c62565b600060209050601f831160018114610d595760008415610d47578287015190505b610d518582610cd3565b865550610db9565b601f198416610d6786610b43565b60005b82811015610d8f57848901518255600182019150602085019450602081019050610d6a565b86831015610dac5784890151610da8601f891682610cb5565b8355505b6001600288020188555050505b505050505050565b82818337600083830152505050565b6000610ddc83856109bf565b9350610de9838584610dc1565b610df2836106e0565b840190509392505050565b610e0681610615565b82525050565b60006060820190508181036000830152610e27818789610dd0565b90508181036020830152610e3c818587610dd0565b9050610e4b6040830184610dfd565b9695505050505050565b6000819050919050565b610e70610e6b82610615565b610e55565b82525050565b6000610e828285610e5f565b602082019150610e928284610e5f565b602082019150819050939250505056fea2646970667358221220b484bbcaeffa530b16c1590167d2cd24db3d5b70e6db8b116131582007ede8f864736f6c63430008140033",
  "linkReferences": {},
  "deployedLinkReferences": {}
}